:04000000FEEF17F008
:100600000000956A9250F00B926E94500F09946E10
:10061000836AF00E801620EE1DF010EE0FF0090E2A
:10062000DBCFE3FFE806FCE2000EA1EC04F02C6E49
:100630000E0E2C18D8A41FEF03F021EF03F036EFB5
:1006400003F0284A292A29BE2FEF03F0295009E197
:10065000960E285CD8A02FEF03F031EF03F056EF91
:1006600003F02B6A000E2A6E56EF03F029BE44EF0A
:1006700003F0295007E1960E285CD8B042EF03F052
:1006800044EF03F053EF03F029BE4FEF03F029507E
:1006900008E12804D8A04FEF03F051EF03F053EF27
:1006A00003F02A4A2B2A296A000E286E2AC001F07C
:1006B0002BC002F0030E046EE80E036EADEC03F0E7
:1006C00001500F0FD96EDA6ADF50196E046A640E9A
:1006D000036E2AC001F02BC002F0ADEC03F001C0A4
:1006E00009F002C00AF00C6A0A0E0B6E0DEC04F061
:1006F00009500F0FD96EDA6ADF501A6E046A0A0EBB
:10070000036E2AC001F02BC002F0ADEC03F001C073
:1007100009F002C00AF00C6A0A0E0B6E0DEC04F030
:1007200009500F0FD96EDA6ADF501B6E2AC009F02C
:100730002BC00AF00C6A0A0E0B6E0DEC04F0095087
:100740000F0FD96EDA6ADF501C6E190E016E64EC61
:1007500004F014EF03F0FEEF17F0066A04BEB5EFE5
:1007600003F0B3EF03F0BBEF03F0036C041ED8B04B
:10077000042A010E066E02BEC2EF03F0C0EF03F0C2
:10078000C8EF03F0016C021ED8B0022A010E061A4F
:10079000086A000E076E03500410D8B4D2EF03F0BD
:1007A000D4EF03F0FCEF03F0010E056EDCEF03F075
:1007B000D89003360436052A04AEE1EF03F0E3EFE8
:1007C00003F0D8EF03F0D890073608360350015CE9
:1007D00004500258D8A0EFEF03F0F1EF03F0F6EF6A
:1007E00003F00350015E0450025A0780D89004328F
:1007F0000332052EE3EF03F00650D8B402EF04F005
:1008000004EF04F008EF04F0076C081ED8B0082AC3
:1008100007C001F008C002F012000E6A0ABE15EF10
:1008200004F013EF04F01BEF04F0096C0A1ED8B0BB
:100830000A2A010E0E6E0CBE22EF04F020EF04F027
:1008400026EF04F00B6C0C1ED8B00C2A0B500C10C9
:10085000D8B42DEF04F02FEF04F053EF04F0010EA5
:100860000D6E37EF04F0D8900B360C360D2A0CAE17
:100870003CEF04F03EEF04F033EF04F00B50095C62
:100880000C500A58D8A047EF04F049EF04F04DEFA0
:1008900004F00B50095E0C500A5AD8900C320B32FF
:1008A0000D2E3EEF04F00E50D8B459EF04F05BEF7C
:1008B00004F05FEF04F0096C0A1ED8B00A2A09C0E0
:1008C00009F00AC00AF01200076A000E066E015015
:1008D0000624D96EDA6ADF50836E06C002F0010E7C
:1008E000036E022A76EF04F0D8900336022E74EFDE
:1008F00004F08050F00B0310806E056A000E046E49
:10090000044A052A05BE8EEF04F0E80E045C030ECF
:100910000558D8A08EEF04F090EF04F080EF04F0BB
:10092000064A072A07BE9EEF04F0075009E1040EAD
:10093000065CD8A09EEF04F0A0EF04F067EF04F08F
:100940001200016E0150D8A4A8EF04F0AAEF04F041
:10095000AEEF04F082500F0BD8EF04F00104D8A4DE
:10096000B4EF04F0B6EF04F0D7EF04F082500F0BB1
:10097000F00AD8B4BEEF04F0C0EF04F0CBEF04F0FF
:100980002750D8B4C6EF04F0C8EF04F0CBEF04F062
:10099000276AAAEF04F082500F0B0F0AD8A4D3EFF6
:1009A00004F0D5EF04F0D7EF04F0010E276E0F0E20
:1009B0001200E00EF66E090EF76E000EF86E00EEF5
:1009C0001DF010EE0BF00900F5CFEEFFE550E15001
:1009D000FAE12B6A2A6A296A286A000101EF03F00A
:0B09E000E721CB6B2D6EEE23EF6F01C3
:042FFC00D9EF04F015
:020000040020DA
:08000000FFFFFFFFFFFFFFFF00
:020000040030CA
:0E000000FF071F1FFF8285FF0FC00FE00F409C
:00000001FF
