:04000000FEEF17F008
:100600000000936A816A056A000E046E076A000E94
:10061000066E044A052A510E041807E1C30E051898
:10062000D8A415EF03F017EF03F009EF03F0056A04
:10063000000E046E075007E1080E065CD8B023EFE9
:1006400003F025EF03F035EF03F006C001F0010ED3
:10065000026E012A2EEF03F0D8900236012E2CEF05
:1006600003F00250811299EF03F0075009E1080EE0
:10067000065CD8A03EEF03F040EF03F050EF03F02C
:10068000075007E1100E065CD8B049EF03F04BEFBE
:1006900003F050EF03F081508124816E99EF03F055
:1006A000075009E1100E065CD8A059EF03F05BEF8C
:1006B00003F07CEF03F0075007E1180E065CD8B09A
:1006C00064EF03F066EF03F07CEF03F006C001F087
:1006D000F00E0126800E026E000E036E012A74EFEA
:1006E00003F0033403320232012E71EF03F00250A3
:1006F0008110816E99EF03F0075009E1180E065C36
:10070000D8A085EF03F087EF03F097EF03F00750D1
:1007100007E1200E065CD8B090EF03F092EF03F0F3
:1007200097EF03F0D8908130816E99EF03F006685F
:100730000768064A072A09EF03F0FEEF17F00001E9
:0407400001EF03F0D2
:042FFC009FEF03F050
:020000040020DA
:08000000FFFFFFFFFFFFFFFF00
:020000040030CA
:0E000000FF071F1FFF8285FF0FC00FE00F409C
:00000001FF
