:04000000FEEF17F008
:100600000000036E350E0318D8A409EF03F00BEFBA
:1006100003F00EEF03F08190CAEF03F0340E0318DD
:10062000D8A415EF03F017EF03F045EF03F059508E
:10063000016E5A50026E594A5A2AD10E015C070EB9
:100640000258D8B026EF03F028EF03F033EF03F0A1
:1006500081A02DEF03F030EF03F0818031EF03F044
:100660008190CAEF03F0A10E595C0F0E5A58D8B012
:100670003CEF03F03EEF03F040EF03F028EF03F010
:100680005A6A000E596ECAEF03F0330E0318D8A44D
:100690004CEF03F04EEF03F06EEF03F05950016E94
:1006A0005A50026E594A5A2ADD0E015C050E025854
:1006B000D8B05DEF03F05FEF03F061EF03F028EFD8
:1006C00003F0B90E595C0B0E5A58D8B06AEF03F01C
:1006D0006CEF03F040EF03F028EF03F0320E031845
:1006E000D8A475EF03F077EF03F097EF03F05950BC
:1006F000016E5A50026E594A5A2AE90E015C030EE5
:100700000258D8B086EF03F088EF03F08AEF03F0C9
:1007100028EF03F0D10E595C070E5A58D8B093EF6A
:1007200003F095EF03F040EF03F028EF03F0310EF4
:100730000318D8A49EEF03F0A0EF03F0C0EF03F07E
:100740005950016E5A50026E594A5A2AF50E015CF0
:10075000010E0258D8B0AFEF03F0B1EF03F0B3EFE2
:1007600003F028EF03F0E90E595C030E5A58D8B095
:10077000BCEF03F0BEEF03F040EF03F028EF03F00F
:10078000300E0318D8A4C7EF03F0C9EF03F0CAEF87
:1007900003F08180120066EC04F01E0E936EF19E51
:1007A0008150E009816E819020EE60F010EE28F01B
:1007B0000F0EDBCFE3FFE806FCE220EE4FF010EE79
:1007C00038F0080EDBCFE3FFE806FCE24E6A000ECD
:1007D0004D6E350E4C6E4EBEF9EF03F04E5007E1F4
:1007E000080E4D5CD8B0F7EF03F0F9EF03F028EFF7
:1007F00004F0280E056E4DC006F04EC007F0B9ECAF
:1008000004F092EC06F04A6E4AC001F0010E45EC8D
:1008100005F04B6E300E4B18D8A411EF04F013EF17
:1008200004F01DEF04F04D50410FD96EDA6A4BC051
:10083000DFFF4D4A4E2A5FEF04F0310E4B18D8A46B
:1008400024EF04F026EF04F05FEF04F013EF04F060
:10085000300E4C18D8A42FEF04F031EF04F035EF30
:1008600004F07AEC05F05FEF04F04D50410FD96EC3
:10087000DA6ADF6A380E016E410E026EDEEC05F0B8
:1008800001500210D8A447EF04F049EF04F04FEFF5
:1008900004F034EC06F0350E4C6E53EF04F04C06C9
:1008A0004C500BEC05F0300E4C18D8B45AEF04F055
:1008B0005CEF04F05FEF04F04E6A000E4D6E4C509A
:1008C00001EC03F0EBEF03F0FEEF17F0956A9450A4
:1008D000F80B946E8290C30E036ECD0EE82EFED7F9
:1008E000032EFCD70000000E016E330E59EC06F00B
:1008F0001B0E036E9E0EE82EFED7032EFCD700D0F3
:10090000000E016E330E59EC06F0A60EE82EFED74F
:1009100000D0000E016E330E59EC06F000D000D06E
:100920000000000E016E020E59EC06F0A60EE82E35
:10093000FED700D0000E016E380E59EC06F0A60E60
:10094000E82EFED700D0000E016E010E59EC06F025
:10095000040E036E3E0EE82EFED7032EFCD7000ECB
:10096000016E0C0E59EC06F0A60EE82EFED700D054
:10097000120005C003F0800E046E76EC06F05B50AA
:10098000086E5C50096E5B4A5C2AC40E085C090E56
:100990000958D8B0CEEF04F0D0EF04F0D8EF04F04F
:1009A0000650C00F036E5F0EABEC06F0EEEF04F0E6
:1009B000880E5B5C130E5C58D8B0E1EF04F0E3EFF7
:1009C00004F0EBEF04F00650C00F036E200EABEC0A
:1009D00006F0EEEF04F05C6A000E5B6E0B6A000E30
:1009E0000A6EFBEF04F00A50C00F036E2A0EABEC48
:1009F00006F00A4A0B2A06500A5C0B50800A086E61
:100A00000750800A0858D8A008EF05F00AEF05F053
:100A1000F3EF04F01200276E20EEA0F010EE07F0C6
:100A20000F0EDBCFE3FFE806FCE220EE90F010EEC5
:100A300017F00F0EDBCFE3FFE806FCE2000E016EBD
:100A4000010E59EC06F0070E036E800E046E76EC74
:100A500006F0C00E036E2750ABEC06F0170E036EC7
:100A6000C20E046E76EC06F0330E066EBB0E056EFB
:100A7000E00EE82EFED7052EFCD7062EFAD7000E84
:100A8000016E010E59EC06F01200026E0250D8A45D
:100A90004CEF05F04EEF05F051EF05F0015079EF06
:100AA00005F00204D8A457EF05F059EF05F078EFF0
:100AB00005F00F0E0118D8B460EF05F062EF05F0F5
:100AC0006DEF05F05850D8B468EF05F06AEF05F007
:100AD0006DEF05F0586A4EEF05F00F0E0118D8A41F
:100AE00074EF05F076EF05F078EF05F0010E586E23
:100AF0000F0E120020EE80F010EE07F00F0EDBCF8D
:100B0000E3FFE806FCE220EE70F010EE17F00F0EA7
:100B1000DBCFE3FFE806FCE2000E016E010E59ECAC
:100B200006F0070E036E800E046E76EC06F0170ECC
:100B3000036EC00E046E76EC06F0330E066EBB0E2E
:100B4000056EE00EE82EFED7052EFCD7062EFAD74E
:100B5000000E016E010E59EC06F01200456E746530
:100B6000722050617373776F726400005265736511
:100B7000742074686520426F6172640057726F6EF2
:100B8000672050617373776F7264000041747465FD
:100B90006D7074206C6566740000000057726F6E93
:100BA000672050617373776F7264000050617373D4
:100BB000776F726420436F7272656374E2EF05F0C1
:100BC000012A022A0250D96EDA6A0150E16EE26A05
:100BD000DE50E618D8A4EFEF05F0F1EF05F0FCEFDA
:100BE00005F00150D96EDA6ADF50D8A4FAEF05F0AB
:100BF000FCEF05F0E0EF05F00150D96EDA6ADF5046
:100C0000036E0250D96EDA6ADF50046E0450035C42
:100C1000016E026AD8A0020612005C0EF66E0B0E80
:100C2000F76E000EF86E00EE60F010EE60F0090056
:100C3000F5CFEEFFE550E150FAE16E0EF66E0D0EC7
:100C4000F76E000EF86E00EE4FF010EE0AF009009D
:100C5000F5CFEEFFE550E150FAE15C6A5B6A5A6A53
:100C6000596A0001CBEF03F0000E016E010E59EC42
:100C700006F020EEB0F010EE07F00F0EDBCFE3FF32
:100C8000E806FCE2070E036E800E046E76EC06F0BA
:100C9000FE0E066EA70E056E660EE82EFED7052E1A
:100CA000FCD7062EFAD7000E016E010E59EC06F0A5
:100CB0001200026E01B05FEF06F062EF06F0828272
:100CC00063EF06F0829202C083FF82848294958E45
:100CD000828082928284829483BE71EF06F073EFE9
:100CE00006F06AEF06F08290959E1200000E016EEB
:100CF000045059EC06F086EF06F0010E016E035029
:100D0000D96EDA6ADF5059EC06F0032A0350D96E27
:100D1000DA6ADF50D8A48FEF06F091EF06F07DEF8E
:100D200006F01200819A818C818E81B29AEF06F0D2
:100D30009CEF06F09FEF06F0300EAAEF06F081B4AC
:100D4000A4EF06F0A6EF06F0A9EF06F0310EAAEF29
:100D500006F00F0E1200046E000E016E035059ECE7
:100D600006F0010E016E045059EC06F0120031310C
:080D7000313130303030000158
:042FFC000DEF06F0DF
:020000040020DA
:08000000FFFFFFFFFFFFFFFF00
:020000040030CA
:0E000000FF071F1FFF8285FF0FC00FE00F409C
:00000001FF
