:04000000FEEF3FF0E0
:100600000000B1EC04F020EE1DF010EE07F0100E2B
:10061000DBCFE3FFE806FCE21B6A010E1A6E196AE3
:10062000000E186E000ECCEC03F01C6E0E0E1C18A3
:10063000D8A41DEF03F01FEF03F028EF03F0070E1F
:10064000016E30EC04F0196A000E186E64EF03F0CE
:100650000D0E1C18D8A42FEF03F031EF03F03AEF82
:1006600003F0070E016E04EC04F0196A010E186E17
:1006700064EF03F00B0E1C18D8A441EF03F043EF16
:1006800003F064EF03F01A501B10D8B44AEF03F0E4
:100690004DEF03F0010E4EEF03F0000E1A6E1B6AD1
:1006A0001A501B10D8B457EF03F059EF03F064EF62
:1006B00003F018501910D8B460EF03F062EF03F0A4
:1006C00064EF03F064EF03F0070E036E800E046E18
:1006D00079EC04F0330E066EBB0E056EE00EE82ECC
:1006E000FED7052EFCD7062EFAD712EF03F0FEEF49
:1006F0003FF0956A9450F80B946E8290C30E036E8F
:10070000CD0EE82EFED7032EFCD70000000E016EA2
:10071000330E5CEC04F01B0E036E9E0EE82EFED72B
:10072000032EFCD700D0000E016E330E5CEC04F0FB
:10073000A60EE82EFED700D0000E016E330E5CEC44
:1007400004F000D000D00000000E016E020E5CEC40
:1007500004F0A60EE82EFED700D0000E016E380E73
:100760005CEC04F0A60EE82EFED700D0000E016E61
:10077000010E5CEC04F0040E036E3E0EE82EFED774
:10078000032EFCD7000E016E0C0E5CEC04F0A60EDE
:10079000E82EFED700D01200016E0150D8A4D3EF8E
:1007A00003F0D5EF03F0D9EF03F082500F0B03EF06
:1007B00004F00104D8A4DFEF03F0E1EF03F002EF4F
:1007C00004F082500F0BF00AD8B4E9EF03F0EBEF1E
:1007D00003F0F6EF03F02E50D8B4F1EF03F0F3EF8F
:1007E00003F0F6EF03F02E6AD5EF03F082500F0B03
:1007F0000F0AD8A4FEEF03F000EF04F002EF04F0BC
:10080000010E2E6E0F0E12000150D96EDA6A0F0E15
:10081000D926DF50026E046A0F0E036E01500324C6
:10082000D96EDA6AFF0ED92601500324E16EE26A1E
:10083000DFCFE7FF0306D8A0040604BE2AEF04F0CA
:10084000045006E10304D8B028EF04F02AEF04F0C6
:100850000EEF04F00150D96EDA6A02C0DFFF120019
:100860000150D96EDA6ADF50026E046A000E036E20
:1008700001500324D96EDA6A010ED92601500324EF
:10088000E16EE26ADFCFE7FF034A042A04BE52EFBB
:1008900004F0045009E10F0E035CD8A052EF04F0FD
:1008A00054EF04F038EF04F00150D96EDA6A0F0EFD
:1008B000D92602C0DFFF1200026E01B062EF04F021
:1008C00065EF04F0828266EF04F0829202C083FF3B
:1008D00082848294958E828082928284829483BE66
:1008E00074EF04F076EF04F06DEF04F08290959EC3
:1008F0001200000E016E04505CEC04F089EF04F06D
:10090000010E016E0350D96EDA6ADF505CEC04F020
:10091000032A0350D96EDA6ADF50D8A492EF04F0AC
:1009200094EF04F080EF04F01200500EF66E090E02
:10093000F76E000EF86E00EE1DF010EE12F00900DA
:10094000F5CFEEFFE550E150FAE1000101EF03F0D1
:100950004A6169204D6168617261736874726121D6
:08096000000179EC03F0120024
:047FFC0095EF04F009
:020000040020DA
:08000000FFFFFFFFFFFFFFFF00
:020000040030CA
:0E000000FF071F1FFF8285FF0FC00FE00F409C
:00000001FF
