:0400000007EF00F016
:0A000800018201ED03F036EF03F072
:10060000000006009EA207EF03F009EF03F024EFBD
:1006100003F09E92024A032A200E021807E14E0EB2
:100620000318D8A416EF03F018EF03F024EF03F03B
:1006300081A41DEF03F020EF03F0818421EF03F08C
:100640008194036A000E026E0192110093948194CA
:10065000F28EF28C9E929D82CA90CA92F90ECB6E57
:10066000CC6ACA8432EF03F007EF00F0036A026A33
:0A06700001900192000126EF03F053
:020000040020DA
:08000000FFFFFFFFFFFFFFFF00
:020000040030CA
:0E000000FF071F1FFF8285FF0FC00FE00F409C
:00000001FF
