:04000000FEEF3FF0E0
:100600000000936A0F0E9412816A000E046E000EB1
:10061000056E000E066E000E076E096A000E086E6B
:10062000000E7BEC04F00C6E0E0E0C18D8A41BEF21
:1006300003F01DEF03F023EF03F00B6A000E0A6EC8
:10064000096A010E086E0D0E0C18D8A42AEF03F0EB
:100650002CEF03F032EF03F00B6A000E0A6E096A0A
:10066000020E086E0B0E0C18D8A439EF03F03BEF06
:1006700003F040EF03F0AA0E816E096A030E086EC4
:10068000070E0C18D8A447EF03F049EF03F04EEF24
:1006900003F0F00E816E096A040E086E010E042646
:1006A000000E052206220722810E04180AE1380EE8
:1006B000051807E106040710D8A461EF03F063EF03
:1006C00003F010EF03F0000E046E000E056E000E36
:1006D000066E000E076E08040910D8A472EF03F02E
:1006E00074EF03F078EF03F09FEC03F010EF03F0EA
:1006F000020E08180910D8A480EF03F082EF03F06F
:1007000086EF03F036EC04F010EF03F0030E081848
:100710000910D8B48EEF03F090EF03F09AEF03F0D6
:10072000040E08180910D8A498EF03F09AEF03F00C
:1007300010EF03F0811E10EF03F0FEEF3FF00BBE51
:10074000ADEF03F00B5007E1080E0A5CD8B0ABEF39
:1007500003F0ADEF03F0BEEF03F00AC001F0010EAD
:10076000026E012AB6EF03F0D8900236012EB4EFE4
:1007700003F002508110816E33EF04F00BBECAEF1C
:1007800003F00B5009E1080E0A5CD8A0CAEF03F091
:10079000CCEF03F0DFEF03F00BBEDAEF03F00B500A
:1007A00007E1100E0A5CD8B0D8EF03F0DAEF03F0DF
:1007B000DFEF03F081508124816E33EF04F00BBE34
:1007C000EBEF03F00B5009E1100E0A5CD8A0EBEF41
:1007D00003F0EDEF03F011EF04F00BBEFBEF03F0BD
:1007E0000B5007E1180E0A5CD8B0F9EF03F0FBEFED
:1007F00003F011EF04F00AC001F0F00E0126800EA4
:10080000026E000E036E012A09EF04F00334033276
:100810000232012E06EF04F002508110816E33EF98
:1008200004F00BBE1DEF04F00B5009E1180E0A5C3A
:10083000D8A01DEF04F01FEF04F031EF04F00BBE61
:100840002DEF04F00B5007E1200E0A5CD8B02BEF1F
:1008500004F02DEF04F031EF04F0D890813233EF43
:1008600004F00A680B680A4A0B2A12000BBE44EF18
:1008700004F00B5007E1080E0A5CD8B042EF04F018
:1008800044EF04F055EF04F00AC001F0010E026ECF
:10089000012A4DEF04F0D8900236012E4BEF04F000
:1008A00002508110816E78EF04F00BBE61EF04F00E
:1008B0000B5009E1080E0A5CD8A061EF04F063EF69
:1008C00004F076EF04F00BBE71EF04F00B5007E17B
:1008D000100E0A5CD8B06FEF04F071EF04F076EF01
:1008E00004F081508124816E78EF04F00A680B686F
:1008F0000A4A0B2A1200016E0150D8A482EF04F0BC
:1009000084EF04F088EF04F082500F0BB2EF04F094
:100910000104D8A48EEF04F090EF04F0B1EF04F0DE
:1009200082500F0B0F0AD8B498EF04F09AEF04F03E
:10093000A5EF04F00D50D8B4A0EF04F0A2EF04F03E
:10094000A5EF04F00D6A84EF04F082500F0B0F0A3C
:10095000D8A4ADEF04F0AFEF04F0B1EF04F0010E56
:100960000D6E0F0E1200820EF66E090EF76E000E5F
:10097000F86E0900F5CF0DF00B6A0A6A000101EF6D
:0309800003F00180
:047FFC00B3EF04F0EB
:020000040020DA
:08000000FFFFFFFFFFFFFFFF00
:020000040030CA
:0E000000FF071F1FFF8285FF0FC00FE00F409C
:00000001FF
