:04000000FEEF17F008
:100600000000936A0F0E9412816A000E046E000EB1
:10061000056E000E066E000E076E096A000E086E6B
:10062000000E7CEC04F00C6E0E0E0C18D8A41BEF20
:1006300003F01DEF03F024EF03F0816A0B6A000E54
:100640000A6E096A010E086E0D0E0C18D8A42BEF65
:1006500003F02DEF03F034EF03F0816A0B6A000E14
:100660000A6E096A020E086E0B0E0C18D8A43BEF36
:1006700003F03DEF03F042EF03F0AA0E816E096A2A
:10068000030E086E070E0C18D8A449EF03F04BEFC9
:1006900003F050EF03F0F00E816E096A040E086E4D
:1006A000010E0426000E052206220722A90E0418B8
:1006B00009E1610E051806100710D8A462EF03F0D7
:1006C00064EF03F010EF03F0000E046E000E056EF1
:1006D000000E066E000E076E08040910D8A473EF12
:1006E00003F075EF03F079EF03F0A0EC03F010EFE7
:1006F00003F0020E08180910D8A481EF03F083EF6D
:1007000003F087EF03F037EC04F010EF03F0030E73
:1007100008180910D8B48FEF03F091EF03F09BEFA6
:1007200003F0040E08180910D8A499EF03F09BEF0A
:1007300003F010EF03F0811E10EF03F0FEEF17F04F
:100740000BBEAEEF03F00B5007E1080E0A5CD8B009
:10075000ACEF03F0AEEF03F0BFEF03F00AC001F01F
:10076000010E026E012AB7EF03F0D8900236012E77
:10077000B5EF03F002508110816E34EF04F00BBE30
:10078000CBEF03F00B5009E1080E0A5CD8A0CBEFC9
:1007900003F0CDEF03F0E0EF03F00BBEDBEF03F06F
:1007A0000B5007E1100E0A5CD8B0D9EF03F0DBEF75
:1007B00003F0E0EF03F081508124816E34EF04F008
:1007C0000BBEECEF03F00B5009E1100E0A5CD8A051
:1007D000ECEF03F0EEEF03F012EF04F00BBEFCEFD2
:1007E00003F00B5007E1180E0A5CD8B0FAEF03F0E3
:1007F000FCEF03F012EF04F00AC001F0F00E012646
:10080000800E026E000E036E012A0AEF04F003341C
:1008100003320232012E07EF04F002508110816E84
:1008200034EF04F00BBE1EEF04F00B5009E1180E7C
:100830000A5CD8A01EEF04F020EF04F032EF04F0C1
:100840000BBE2EEF04F00B5007E1200E0A5CD8B06F
:100850002CEF04F02EEF04F032EF04F0D890813248
:1008600034EF04F00A680B680A4A0B2A12000BBE28
:1008700045EF04F00B5007E1080E0A5CD8B043EFD7
:1008800004F045EF04F056EF04F00AC001F0010E49
:10089000026E012A4EEF04F0D8900236012E4CEF82
:1008A00004F002508110816E79EF04F00BBE62EF0C
:1008B00004F00B5009E1080E0A5CD8A062EF04F0C6
:1008C00064EF04F077EF04F00BBE72EF04F00B500E
:1008D00007E1100E0A5CD8B070EF04F072EF04F07C
:1008E00077EF04F081508124816E79EF04F00A687B
:1008F0000B680A4A0B2A1200016E0150D8A483EF3C
:1009000004F085EF04F089EF04F082500F0BB3EF91
:1009100004F00104D8A48FEF04F091EF04F0B2EFDB
:1009200004F082500F0B0F0AD8B499EF04F09BEF3C
:1009300004F0A6EF04F00D50D8B4A1EF04F0A3EF3B
:1009400004F0A6EF04F00D6A85EF04F082500F0B5F
:100950000F0AD8A4AEEF04F0B0EF04F0B2EF04F049
:10096000010E0D6E0F0E1200000EF66E300EF76EB9
:10097000000EF86E0900F5CF0DF00B6A0A6A00014F
:0409800001EF03F090
:052FFC00B4EF04F00138
:020000040020DA
:08000000FFFFFFFFFFFFFFFF00
:020000040030CA
:0E000000FF071F1FFF8285FF0FC00FE00F409C
:00000001FF
