:04000000FEEF17F008
:100600000000936A010E816E026A000E016E014ABB
:10061000022A02BE17EF03F0840E015C030E02589B
:10062000D8B015EF03F017EF03F01AEF03F0819045
:1006300007EF03F002BE28EF03F0E80E015C030EA3
:100640000258D8B026EF03F028EF03F02BEF03F0A9
:10065000818007EF03F0026A000E016E07EF03F0DE
:0A066000FEEF17F0000101EF03F0B8
:042FFC0032EF03F0BD
:020000040020DA
:08000000FFFFFFFFFFFFFFFF00
:020000040030CA
:0E000000FF071F1FFF8285FF0FC00FE00F409C
:00000001FF
