:0400000007EF00F016
:0A0008000182BEED03F0A7EF03F044
:100600000000010E936E956AF00E9216800E816EB8
:1006100016C00AF017C00BF018C00CF019C00DF08E
:10062000136A000E126EF28EF28CF288F292156A44
:10063000000E146E14500A0FD96EDA6A14500E0FA1
:10064000E16EE26ADFCFE7FF144A152A15BE32EFEA
:1006500003F0155009E1040E145CD8A032EF03F04A
:1006600034EF03F01AEF03F00E0E026E6AEC03F0A3
:10067000124A132A2D0E121806E11304D8A443EFD0
:1006800003F045EF03F05BEF03F0136A000E126E08
:1006900081AE4DEF03F051EF03F0096A092A52EFE2
:1006A00003F0096A09320932815009187F0B0918D1
:1006B000816E1A4A1B2A050E1A181B10D8A463EF64
:1006C00003F065EF03F017EF03F0030017EF03F0FB
:1006D00007EF00F0086A000E076E02500724D96E7B
:1006E000DA6ADF50836E07C003F0010E046E032A3E
:1006F0007CEF03F0D8900436032E7AEF03F080509D
:10070000F00B0410806E066A000E056E054A062A7C
:1007100006BE94EF03F0E80E055C030E0658D8A061
:1007200094EF03F096EF03F086EF03F0074A082AF0
:1007300008BEA4EF03F0085009E1040E075CD8A03E
:10074000A4EF03F0A6EF03F06DEF03F01200980E94
:10075000F66E070EF76E000EF86E00EE16F010EE55
:1007600004F00900F5CFEEFFE550E150FAE11B6A15
:100770001A6A01900192000101EF03F00600F2A253
:10078000C4EF03F0C6EF03F0CAEF03F0F2921B6A66
:0C079000000E1A6E0192110021CB6B2D9F
:020000040020DA
:08000000FFFFFFFFFFFFFFFF00
:020000040030CA
:0E000000FF071F1FFF8285FF0FC00FE00F409C
:00000001FF
