:04000000FEEF17F008
:100600000000936A0F0E9412816A000E026E000EB3
:10061000036E000E046E000E056E000E66EC03F015
:10062000066E010E0226000E032204220522A10EF0
:1006300002180AE1860E031807E104040510D8A485
:1006400024EF03F026EF03F00DEF03F0000E026E2F
:10065000000E036E000E046E000E056E0E0E0618E0
:10066000D8A435EF03F037EF03F03BEF03F0010EB2
:10067000816E0DEF03F00D0E0618D8A442EF03F0C3
:1006800044EF03F048EF03F0030E816E0DEF03F02B
:100690000B0E0618D8A44FEF03F051EF03F055EFFF
:1006A00003F0AA0E816E0DEF03F0070E0618D8A412
:1006B0005CEF03F05EEF03F061EF03F081680DEF94
:1006C00003F0816A0DEF03F0FEEF17F0016E0150A9
:1006D000D8A46DEF03F06FEF03F073EF03F08250D7
:1006E0000F0B9DEF03F00104D8A479EF03F07BEF2B
:1006F00003F09CEF03F082500F0B0F0AD8B483EF86
:1007000003F085EF03F090EF03F00750D8B48BEFC0
:1007100003F08DEF03F090EF03F0076A6FEF03F043
:1007200082500F0B0F0AD8A498EF03F09AEF03F052
:100730009CEF03F0010E076E0F0E1200000EF66E16
:10074000300EF76E000EF86E0900F5CF07F00001CD
:0407500001EF03F0C2
:052FFC009EEF03F0014F
:020000040020DA
:08000000FFFFFFFFFFFFFFFF00
:020000040030CA
:0E000000FF071F1FFF8285FF0FC00FE00F409C
:00000001FF
