:0400000007EF00F016
:0A000800018201ED03F037EF03F071
:1006000000000600F2A407EF03F009EF03F022EF69
:1006100003F0080ED624D66E000ED720D76EF294C3
:10062000024A032A890E021807E1130E0318D8A400
:100630001CEF03F01EEF03F022EF03F0036A000E3D
:10064000026E811E01921100936A816AF28EF28C11
:10065000F28AD58CD59AD596D594D592D580D76A7D
:10066000060ED66ED58E33EF03F007EF00F0036A67
:0C067000026A01900192000124EF03F0E7
:020000040020DA
:08000000FFFFFFFFFFFFFFFF00
:020000040030CA
:0E000000FF071F1FFF8285FF0FC00FE00F409C
:00000001FF
