:0400000007EF00F016
:0A00080001827EED03F0A8EF03F083
:100600000000936A94500F09946E8168F28EF28C08
:100610009E929D82CC6AF90ECB6ECA90CA92CA8411
:100620000A6A010E096E45EC03F00B6E0E0E0B18F4
:10063000D8A41DEF03F01FEF03F02CEF03F00550DB
:1006400007E1640E045CD8B028EF03F02AEF03F052
:100650002CEF03F0044A052A0D0E0B18D8A433EF33
:1006600003F035EF03F010EF03F004500510D8B499
:100670003CEF03F03EEF03F010EF03F00406D8A0C8
:10068000050610EF03F007EF00F009500A10D8A498
:100690004CEF03F04EEF03F052EF03F082500F0BDC
:1006A0007DEF03F009040A10D8A459EF03F05BEFC3
:1006B00003F07CEF03F082500F0B0F0AD8B463EF06
:1006C00003F065EF03F070EF03F00650D8B46BEF62
:1006D00003F06DEF03F070EF03F0066A4EEF03F0E6
:1006E00082500F0B0F0AD8A478EF03F07AEF03F0D3
:1006F0007CEF03F0010E066E0F0E120006009EA2A4
:1007000084EF03F086EF03F0A6EF03F09E9204500F
:10071000075C05500858D8B090EF03F092EF03F053
:1007200095EF03F0816896EF03F0816A074A082A83
:10073000085009E1640E075CD8A0A1EF03F0A3EF15
:1007400003F0A6EF03F0086A000E076E0192110095
:100750007E0EF66E070EF76E000EF86E00EE02F0DB
:1007600010EE05F00900F5CFEEFFE550E150FAE19B
:10077000086A076A01900192000101EF03F064002A
:0307800032000143
:020000040020DA
:08000000FFFFFFFFFFFFFFFF00
:020000040030CA
:0E000000FF071F1FFF8285FF0FC00FE00F409C
:00000001FF
