:0400000007EF00F016
:0A000800018201ED03F0B5EF03F0F3
:1006000000000600F2A407EF03F009EF03F043EF48
:1006100003F0F294080ED624D66E000ED720D76EC3
:10062000064A072A0A50065C0B500758D8B01BEF41
:1006300003F01DEF03F020EF03F0818031EF03F0B2
:100640000850065C09500758D8B029EF03F02BEF8B
:1006500003F02EEF03F0819031EF03F0076A000EF4
:10066000066E044A052A200E045C4E0E0558D8A0DA
:100670003CEF03F03EEF03F043EF03F0056A000E9A
:10068000046E024A032A01921100939094500F09BC
:10069000946E8190D58CD59AD586D76A000ED66E89
:1006A000D58EF28EF28CF28AF294010E7DEC03F07C
:1006B0000E6E0E0E0E18D8A460EF03F062EF03F07A
:1006C00068EF03F00B6A640E0A6E036A000E026E96
:1006D000035009E1050E025CD8A071EF03F073EF3F
:1006E00003F055EF03F00B6A320E0A6E036A000E38
:1006F000026E55EF03F007EF00F00D6E0D50D8A419
:1007000084EF03F086EF03F08AEF03F082500F0BC3
:10071000B4EF03F00D04D8A490EF03F092EF03F0D0
:10072000B3EF03F082500F0B0F0AD8B49AEF03F027
:100730009CEF03F0A7EF03F00C50D8B4A2EF03F046
:10074000A4EF03F0A7EF03F00C6A86EF03F08250EA
:100750000F0B0F0AD8A4AFEF03F0B1EF03F0B3EF24
:1007600003F0010E0C6E0F0E1200A00EF66E070EB7
:10077000F76E000EF86E00EE08F010EE05F00900BE
:10078000F5CFEEFFE550E150FAE1076A066A056A27
:10079000046A036A026A01900192000145EF03F0C6
:0507A0006400320001BD
:020000040020DA
:08000000FFFFFFFFFFFFFFFF00
:020000040030CA
:0E000000FF071F1FFF8285FF0FC00FE00F409C
:00000001FF
