:0400000007EF00F016
:0A000800018201ED03F0AEEF03F0FA
:1006000000000600F2A407EF03F009EF03F030EF5B
:1006100003F0080ED624D66E000ED720D76EF294C3
:10062000064A072A110E061807E1270E0718D8A454
:100630001CEF03F01EEF03F030EF03F0076A000E2B
:10064000066E81A026EF03F02AEF03F0086A082A5D
:100650002BEF03F0086A81500818FE0B0818816E12
:100660009EA035EF03F037EF03F05DEF03F0DE0EF1
:10067000CE24CE6E0B0ECF20CF6E9E90044A052A5C
:10068000290E04180510D8A448EF03F04AEF03F030
:100690005DEF03F0056A000E046E81A252EF03F0D5
:1006A00056EF03F0086A082A57EF03F0086A084675
:1006B00081500818FD0B0818816E9EA262EF03F0AE
:1006C00064EF03F087EF03F09E92024A032A110EB3
:1006D000021807E1270E0318D8A471EF03F073EF97
:1006E00003F087EF03F0036A000E026E81A47BEF34
:1006F00003F07FEF03F0086A082A80EF03F0086A2E
:100700000846084681500818FB0B0818816E0192B4
:100710001100939281929E909D80CD92CD98CD9A1A
:100720000B0ECF6EDC0ECE6ECD801200C4EC03F04B
:10073000A2EC03F089EC03F0B9EC03F09EEF03F0B8
:1007400007EF00F093908190F28AF294D58CD59ABD
:10075000D586D76A000ED66ED58E1200076A066A55
:10076000056A046A036A026A01900192000196EF29
:1007700003F0939481949E929D82CA90CA92F90E3E
:0E078000CB6ECC6ACA841200F28EF28C12008C
:020000040020DA
:08000000FFFFFFFFFFFFFFFF00
:020000040030CA
:0E000000FF071F1FFF8285FF0FC00FE00F409C
:00000001FF
