:04000000FEEF17F008
:100600000000076A000E066E01500624D96EDA6AF1
:10061000DF50836E06C002F0010E036E022A13EF54
:1006200003F0D8900336022E11EF03F08050F00B48
:100630000310806E030E056EE80E046E0406D8A04B
:100640000506042806E10528D8A429EF03F02BEFBE
:1006500003F01EEF03F0064A072A07BE39EF03F046
:10066000075009E1040E065CD8A039EF03F03BEF18
:1006700003F004EF03F01200956AF00E9216F00EEC
:10068000801620EE16F010EE08F0090EDBCFE3FF27
:10069000E806FCE208C012F009C013F00AC014F02A
:1006A0000BC015F0120E016E01EC03F04AEF03F0DF
:1006B000FEEF17F0DA0EF66E060EF76E000EF86E0D
:1006C00000EE16F010EE0AF00900F5CFEEFFE5504F
:1006D000E150FAE100013CEF03F0E721CB6B2D6E16
:0406E000EE23EF6FA7
:042FFC005AEF03F095
:020000040020DA
:08000000FFFFFFFFFFFFFFFF00
:020000040030CA
:0E000000FF071F1FFF8285FF0FC00FE00F409C
:00000001FF
