:04000000FEEF17F008
:100600000000956AF00E9216F00E801620EE1CF097
:1006100010EE08F00B0EDBCFE3FFE806FCE21B6AEE
:10062000000E1A6E1AC001F01BC002F0046A0C0E14
:10063000036E7BEC03F00150080FD96EDA6ADF50CD
:10064000146E010E1A24016E000E1B20026E046A45
:100650000C0E036E7BEC03F00150080FD96EDA6AC2
:10066000DF50156E020E1A24016E000E1B20026E62
:10067000046A0C0E036E7BEC03F00150080FD96E78
:10068000DA6ADF50166E030E1A24016E000E1B206C
:10069000026E046A0C0E036E7BEC03F00150080F2F
:1006A000D96EDA6ADF50176E196A000E186E140ED2
:1006B000016ED2EC03F0184A192A19BE69EF03F053
:1006C000195009E1640E185CD8A069EF03F06BEFD4
:1006D00003F057EF03F01A4A1B2A0C0E1A181B10CE
:1006E000D8A475EF03F077EF03F012EF03F00FEFEC
:1006F00003F0FEEF17F0066A02BE83EF03F081EF0E
:1007000003F089EF03F0016C021ED8B0022A010E3B
:10071000066E04BE90EF03F08EEF03F094EF03F04B
:10072000036C041ED8B0042A03500410D8B49BEF05
:1007300003F09DEF03F0C1EF03F0010E056EA5EF8E
:1007400003F0D89003360436052A04AEAAEF03F06E
:10075000ACEF03F0A1EF03F00350015C045002582A
:10076000D8A0B5EF03F0B7EF03F0BBEF03F00350F1
:10077000015E0450025AD89004320332052EACEFC9
:1007800003F00650D8B4C7EF03F0C9EF03F0CDEF84
:1007900003F0016C021ED8B0022A01C001F002C0B1
:1007A00002F01200076A000E066E01500624D96E90
:1007B000DA6ADF50836E06C002F0010E036E022A71
:1007C000E4EF03F0D8900336022EE2EF03F08050FE
:1007D000F00B0310806E030E056EE80E046E040627
:1007E000D8A00506042806E10528D8A4FAEF03F0EE
:1007F000FCEF03F0EFEF03F0064A072A07BE0AEF0B
:1008000004F0075009E1040E065CD8A00AEF04F0DA
:100810000CEF04F0D5EF03F01200400EF66E080E58
:10082000F76E000EF86E00EE1CF010EE0CF00900F2
:10083000F5CFEEFFE550E150FAE1000101EF03F0E2
:0C084000E721CB6B2D6EEE23EF6F4040E4
:042FFC000DEF04F0E1
:020000040020DA
:08000000FFFFFFFFFFFFFFFF00
:020000040030CA
:0E000000FF071F1FFF8285FF0FC00FE00F409C
:00000001FF
