:04000000FEEF17F008
:1006000000004BEC04F0956A9250F00B926EF00EE5
:10061000801620EE20F010EE0CF0090EDBCFE3FF89
:10062000E806FCE2060E15EC04F001C016F002C06C
:1006300017F0170E086E130E096E08501602F3CF4E
:100640000AF0F4CF0BF01702F3500B2609501602F4
:10065000F3500B260AC001F00BC002F0030E046E2B
:10066000E80E036EAAEC03F001C018F002C019F006
:1006700018C001F019C002F0046A0A0E036EAAEC59
:1006800003F001C01EF002C01FF01EC001F01FC029
:1006900002F0046A0A0E036EAAEC03F001500C0F7C
:1006A000D96EDA6ADF501A6E1EC001F01FC002F068
:1006B000046A0A0E036EE3EC03F001500C0FD96ECE
:1006C000DA6ADF501B6E100E1C6EC60E1D6E1A0EFF
:1006D000016E6FEC03F012EF03F0FEEF17F0076A04
:1006E000000E066E01500624D96EDA6ADF50836E62
:1006F00006C002F0010E036E022A81EF03F0D890CB
:100700000336022E7FEF03F08050F00B0310806E53
:10071000030E056EE80E046E0406D8A00506042834
:1007200006E10528D8A497EF03F099EF03F08CEFCA
:1007300003F0064A072A07BEA7EF03F0075009E1B6
:10074000040E065CD8A0A7EF03F0A9EF03F072EF48
:1007500003F01200066A000E056E03500410D8B4B0
:10076000B4EF03F0B6EF03F0DEEF03F0010E076E17
:10077000BEEF03F0D89003360436072A04AEC3EF69
:1007800003F0C5EF03F0BAEF03F0D8900536063654
:100790000350015C04500258D8A0D1EF03F0D3EF0E
:1007A00003F0D8EF03F00350015E0450025A0580B5
:1007B000D89004320332072EC5EF03F005C001F0D4
:1007C00006C002F0120003500410D8B4EAEF03F0A0
:1007D000ECEF03F010EF04F0010E056EF4EF03F000
:1007E000D89003360436052A04AEF9EF03F0FBEF88
:1007F00003F0F0EF03F00350015C04500258D8A05E
:1008000004EF04F006EF04F00AEF04F00350015E79
:100810000450025AD89004320332052EFBEF03F045
:1008200001C001F002C002F01200076E07C003F021
:10083000D8900336D8900336C250C30B0310C26E53
:10084000C282C2B226EF04F028EF04F021EF04F0D8
:10085000C350C4CF03F0046A03C004F0036A03105A
:10086000056E0450066E05C001F006C002F01200CD
:10087000B20EF66E080EF76E000EF86E00EE20F067
:1008800010EE0AF00900F5CFEEFFE550E150FAE175
:10089000000101EF03F0C08EC08AC098C096C094DA
:1008A000C082C090C292C19AC198C46AC36AC28011
:0C08B0001200E721CB6B2D6EEE23EF6FE2
:042FFC0038EF04F0B6
:020000040020DA
:08000000FFFFFFFFFFFFFFFF00
:020000040030CA
:0E000000FF071F1FFF8285FF0FC00FE00F409C
:00000001FF
