:0400000007EF00F016
:0A000800018260ED03F06DEF03F0DC
:100600000000076A010E066E73EC03F00850D8B4C0
:100610000CEF03F00EEF03F018EF03F0086A81AE61
:1006200014EF03F017EF03F0818E18EF03F0819EB3
:1006300082B01DEF03F01FEF03F02FEF03F0065021
:100640000710D8B426EF03F028EF03F02FEF03F0E4
:10065000076A000E066E010E086E39EF03F082A0E5
:1006600034EF03F036EF03F039EF03F0076A010EC1
:10067000066E036A320E026E4FEF03F0C30E056E74
:10068000500E046E0406D8A00506042806E10528CD
:10069000D8A44DEF03F04FEF03F042EF03F0020652
:1006A000D8A00306022806E10328D8A45AEF03F0D5
:1006B0005CEF03F03EEF03F006EF03F007EF00F00E
:1006C0000600F2A266EF03F068EF03F06BEF03F0B1
:1006D000010E086EF29201921100086A01900192D7
:1006E000000101EF03F00F0EC16E939E9380120084
:020000040020DA
:08000000FFFFFFFFFFFFFFFF00
:020000040030CA
:0E000000FF071F1FFF8285FF0FC00FE00F409C
:00000001FF
