:04000000FEEF3FF0E0
:100600000000956A9450F80B946E8290C30E036EAE
:10061000CD0EE82EFED7032EFCD70000000E016E93
:10062000330EA5EC03F01B0E036E9E0EE82EFED7D4
:10063000032EFCD700D0000E016E330EA5EC03F0A4
:10064000A60EE82EFED700D0000E016E330EA5ECEC
:1006500003F000D000D00000000E016E020EA5ECE9
:1006600003F0A60EE82EFED700D0000E016E380E65
:10067000A5EC03F0A60EE82EFED700D0000E016E0A
:10068000010EA5EC03F0040E036E3E0EE82EFED71D
:10069000032EFCD7000E016E0C0EA5EC03F0A60E87
:1006A000E82EFED700D01200DBEC03F020EE12F0B3
:1006B00010EE05F00A0EDBCFE3FFE806FCE20E2A9F
:1006C000390E0E18D8A467EF03F069EF03F05FEF5F
:1006D00003F0116A080E106E1050050FD96EDA6A19
:1006E000390EDE18D8B477EF03F079EF03F080EF1E
:1006F00003F01050050FD96EDA6ADF2A89EF03F094
:10070000104A112A11BE89EF03F087EF03F06CEF56
:1007100003F0104A112A11BE97EF03F0115009E1BE
:100720000A0E105CD8A097EF03F099EF03F09BEF4F
:1007300003F05FEF03F01050050FD96EDA6A300E48
:10074000DF6E89EF03F0FEEF3FF0026E01B0ABEF1A
:1007500003F0AEEF03F08282AFEF03F0829202C0AB
:1007600083FF82848294958E828082928284829496
:1007700083BEBDEF03F0BFEF03F0B6EF03F082904E
:10078000959E1200AA0EF66E070EF76E000EF86E1A
:1007900000EE12F010EE0BF00900F5CFEEFFE55081
:1007A000E150FAE1000154EF03F0303030303030E6
:0507B000303030300084
:0607B60001EC03F012004B
:047FFC00C2EF03F0DD
:020000040020DA
:08000000FFFFFFFFFFFFFFFF00
:020000040030CA
:0E000000FF071F1FFF8285FF0FC00FE00F409C
:00000001FF
