:04000000FEEF17F008
:100600000000956A9450F80B946E8290C30E036EAE
:10061000CD0EE82EFED7032EFCD70000000E016E93
:10062000330E99EC03F01B0E036E9E0EE82EFED7E0
:10063000032EFCD700D0000E016E330E99EC03F0B0
:10064000A60EE82EFED700D0000E016E330E99ECF8
:1006500003F000D000D00000000E016E020E99ECF5
:1006600003F0A60EE82EFED700D0000E016E380E65
:1006700099EC03F0A60EE82EFED700D0000E016E16
:10068000010E99EC03F0040E036E3E0EE82EFED729
:10069000032EFCD7000E016E0C0E99EC03F0A60E93
:1006A000E82EFED700D01200EEEC03F020EE1BF097
:1006B00010EE07F0100EDBCFE3FFE806FCE2070EBA
:1006C000036E800E046EB6EC03F0330E066EBB0EA6
:1006D000056EE00EE82EFED7052EFCD7062EFAD7C3
:1006E00016C018F01A6A0F0E196E19C005F0FF0E29
:1006F00005260550070FD96EDA6A1950070FE16E0B
:10070000E26ADFCFE7FF1906D8A01A061ABE93EFF8
:1007100003F01A5006E11904D8B091EF03F093EFFB
:1007200003F075EF03F018C007F05FEF03F0FEEF82
:1007300017F0026E01B09FEF03F0A2EF03F0828288
:10074000A3EF03F0829202C083FF82848294958E8D
:10075000828082928284829483BEB1EF03F0B3EFF1
:1007600003F0AAEF03F08290959E1200000E016E36
:10077000045099EC03F0C6EF03F0010E016E035034
:10078000D96EDA6ADF5099EC03F0032A0350D96E70
:10079000DA6ADF50D8A4CFEF03F0D1EF03F0BDEF5A
:1007A00003F01200CA0EF66E070EF76E000EF86E1A
:1007B00000EE1BF010EE11F00900F5CFEEFFE55052
:1007C000E150FAE1000154EF03F048656C6C6F20D2
:0B07D000576F726C6420202020200076
:0607DC0001EC03F0120025
:042FFC00D2EF03F01D
:020000040020DA
:08000000FFFFFFFFFFFFFFFF00
:020000040030CA
:0E000000FF071F1FFF8285FF0FC00FE00F409C
:00000001FF
